:100000007229FF3FFF3FFF3F031383122008FF3A8F
:10001000031DE6282A08003A031D20280130A1020A
:10002000031CA20380302206F00080307002031D02
:100030001B2801302102031820280830A100A2014A
:100040002A08FF3A031D3528A10A0319A20A8030A5
:10005000F000803022067002031D30282108083C81
:10006000031835280130A100A20100302906031D24
:100070003B2801302806031D8D2800302206031D71
:10008000432801302106031D47280930870000302E
:100090002206031D4D2802302106031D5128083079
:1000A000870000302206031D572803302106031D58
:1000B0005B280C30870000302206031D61280430C5
:1000C0002106031D65280430870000302206031D29
:1000D0006B2805302106031D6F280630870000308D
:1000E0002206031D752806302106031D79280230DB
:1000F000870000302206031D7F2807302106031DDC
:1001000083280330870000302206031D8928083029
:100110002106031D8D280130870000302906031DAC
:10012000932802302806031DE52800302206031D0F
:100130009B2801302106031D9F2890308700003046
:100140002206031DA52802302106031DA9288030A0
:10015000870000302206031DAF2803302106031D4F
:10016000B328C030870000302206031DB9280430B0
:100170002106031DBD284030870000302206031DE4
:10018000C32805302106031DC728603087000030D2
:100190002206031DCD2806302106031DD12820305C
:1001A000870000302206031DD72807302106031DD3
:1001B000DB283030870000302206031DE12808309C
:1001C0002106031DE5281030870071292A08003A0E
:1001D000031DFB28A10A0319A20A8030F000803019
:1001E00022067002031DF6282108043C0318FB2890
:1001F0000130A100A2012A08FF3A031D1129013094
:10020000A102031CA20380302206F000803070029D
:10021000031D0C2901302102031811290430A1000B
:10022000A20100302906031D172901302806031DED
:10023000412900302206031D1F2901302106031D1C
:1002400023290830870000302206031D29290230A7
:100250002106031D2D290430870000302206031DCE
:10026000332903302106031D37290230870000306F
:100270002206031D3D2904302106031D41290130BA
:10028000870000302906031D472902302806031D78
:10029000712900302206031D4F2901302106031D5C
:1002A00053298030870000302206031D592902306F
:1002B0002106031D5D294030870000302206031D02
:1002C000632903302106031D672920308700003091
:1002D0002206031D6D2904302106031D71291030EB
:1002E00087000800FF300313831685007F308600E7
:1002F00087018B01031783129E019F01031387015E
:10030000A101A201A301A401A501A601A701FF303B
:10031000A00001300505F1007108013A031D9C2978
:100320002308003A031D9C29FF30A3000130A800D8
:10033000A9012708AA00042001300505F100710871
:10034000003A031DA429A301003085180130F100F3
:100350007108013A031DB8292408003A031DB82981
:10036000FF30A4000230A800A9012708AA00042039
:10037000003085180130F1007108003A031DC129D1
:10038000A401003005190130F1007108013A031D84
:10039000CC29FF30A700CD29A701003085190130F5
:1003A000F1007108013A031DF1292608003A031DE6
:1003B000F129FF30A6002008003A031DE229FF3092
:1003C000A000F129A0018030F000803022067002E8
:1003D000031DEC292108043C0318F1290430A10075
:1003E000A201003085190130F1007108003A031DA7
:1003F000FA29A6018929FB29FF3FFF3FFF3FFF3F65
:02400E00FFFFB2
:00000001FF
