:100000003229FF3FFF3FFF3F031383127408F802BA
:100010007508031C750FF9027608031C760FFA02A7
:100020007708031C770FFB02F30D0730FC00730DFC
:10003000F80DF90DFA0DFB0D7408731C2D28F8024C
:100040007508031C750FF9027608031C760FFA0277
:100050007708031C770FFB023A28F8077508031886
:10006000750FF90776080318760FFA077708031853
:10007000770FFB07F30DFC0B1728720DF80DF90D28
:10008000FA0DFB0D7408731C5328F8027508031C45
:10009000750FF9027608031C760FFA027708031C25
:1000A000770FFB026028F80775080318750FF9072A
:1000B00076080318760FFA0777080318770FFB07FF
:1000C000F20D0730FC00720DF80DF90DFA0DFB0D65
:1000D0007408721C7928F8027508031C750FF90260
:1000E0007608031C760FFA027708031C770FFB02D1
:1000F0008628F80775080318750FF907760803189E
:10010000760FFA0777080318770FFB07F20DFC0B41
:100110006328710DF80DF90DFA0DFB0D7408721CB2
:100120009F28F8027508031C750FF9027608031C56
:10013000760FFA027708031C770FFB02AC28F8074A
:1001400075080318750FF90776080318760FFA0774
:1001500077080318770FFB07F10D0730FC00710DCE
:10016000F80DF90DFA0DFB0D7408711CC528F80285
:100170007508031C750FF9027608031C760FFA0246
:100180007708031C770FFB02D228F80775080318BD
:10019000750FF90776080318760FFA077708031822
:1001A000770FFB07F10DFC0BAF28700DF80DF90D63
:1001B000FA0DFB0D7408711CEB28F8027508031C7E
:1001C000750FF9027608031C760FFA027708031CF4
:1001D000770FFB02F828F80775080318750FF90761
:1001E00076080318760FFA0777080318770FFB07CE
:1001F000F00D0730FC00700DF80DF90DFA0DFB0D38
:100200007408701C1129F8027508031C750FF90297
:100210007608031C760FFA027708031C770FFB029F
:100220001E29F80775080318750FF90776080318D3
:10023000760FFA0777080318770FFB07F00DFC0B12
:10024000FB28701831297408F80775080318750F12
:10025000F90776080318760FFA0777080318770F5F
:10026000FB070800FF300313831685007F308600EC
:1002700087018B01031783129E019F0103138701DE
:100280001930A300A4011930A500A601A201A10103
:1002900019308316990018153B2683267008003CF8
:1002A0000318DF292730C1005C30BB00BC013B30A4
:1002B000C20097242E30C1002F30BB00BC013B3060
:1002C000C20097242730C100E1217008B5007108F1
:1002D000B6002E30C1006930BB006E30BC007630F5
:1002E000BD00BE013B30C200232500307106031D56
:1002F0007B2900307006031D7F29FF30A2002E30BD
:10030000C1006E30BB006F30BC007230BD00BE015A
:100310003B30C200232500307106031D91290030B7
:100320007006031D9429A201E830F4000330F500A3
:100330003508F0003608F1003D247008BF00710850
:10034000C0003F08B7004008B8003F08F000400870
:10035000F100E830F4000330F500DA2470083502CB
:10036000B9007108031C013F3602BA000030400694
:10037000031DBC2901303F06031DC5293908C100F2
:100380003A08C200C301C401C52300303806031D6A
:10039000CB2902303706031DD5293908C1003A0898
:1003A000C2000130C300C401C5233608033A031D4F
:1003B000DB29EA303506031DDF29FF30A1004D2976
:1003C000E02903138312C201C3011030C600273095
:1003D000C700C401C501CA01CB01CC01CD01C801D0
:1003E000C9014408410784000008F4007408003A79
:1003F00003195D2A4408410784000008F4007408CA
:100400002D3A031D0A2AFF30C800C901C40A031986
:10041000C50AF1294408410784000008F400740863
:10042000203A03194D2A4408410784000008F000CF
:100430003030F800F901FA01FB017008F400F50111
:10044000F601F7017408F0007508F1007608F20073
:100450007708F3007808F0027908031C790FF1029D
:100460007A08031C7A0FF2027B08031C7B0FF3024D
:100470004608F4004708F500F601F7016925700801
:10048000CA0771080318710FCB0772080318720F9F
:10049000CC0773080318730FCD070A30F400F50179
:1004A0004608F0004708F10008267008C6007108E9
:1004B000C700C40A0319C50AF129480849040319E9
:1004C000652A0630C600C701682A0530C600C70184
:1004D00045084706031D6E2A4608440603198A2A62
:1004E0000A30F400F501F601F7014A08F0004B0864
:1004F000F1004C08F2004D08F300A3227008CA0076
:100500007108CB007208CC007308CD00C40A03192F
:10051000C50A682A4A08C2004B08C30000304906D1
:10052000031D942AFF304806031D9E2A4208003C02
:10053000C2004308031C013FC301C3024208F0008C
:100540004308F100080003138312FC01F71BFC0AA7
:10055000FD01FB01FA01F901F8017308720471044D
:1005600070040319372B73087706A000A01BFD0940
:10057000F71FC52AF409F509F609F709F40A031962
:10058000F50A0319F60A0319F70AF31FD22AF0092C
:10059000F109F209F309F00A0319F10A0319F20A41
:1005A0000319F30A73087704A000A01BF32A0420A0
:1005B000FC1B102BFD1F372BF009F109F209F30981
:1005C000F00A0319F10A0319F20A0319F30AF809E8
:1005D000F909FA09FB09F80A0319F90A0319FA0AD1
:1005E0000319FB0A372BF71F0A2BF31B042B730885
:1005F000FB007208FA007108F9007008F800F301B6
:10060000F201F101F001DA2AF301F201F101F00146
:10061000F00A0034F309F209F109F009FC17D72AAE
:10062000F80A0319F90A0319FA0A0319FB0A7408EC
:100630007802031DDA2A75087902031DDA2A760882
:100640007A02031DDA2A77087B02031DDA2AFB01EE
:10065000FA01F901F801F00A0319F10A0319F20A83
:100660000319F30AF31FDA2AA0012016FF34A001B0
:100670007C1C3B2B7526003F0800E83003138312D7
:10068000D0000330D100D201D3014E08F0004F0852
:10069000F100F201F301E830F4000330F50000301E
:1006A000F6000030F700A4257008D0007108D100D2
:1006B0007208D2007308D30000307302031D6A2B46
:1006C00000307202031D6A2B02307102031D6A2B77
:1006D000A330700203186D2BC42BA330F00002303E
:1006E000F100F201F3015008F4005108F50052083E
:1006F000F6005308F7007008F4027108031C710F2C
:10070000F5027208031C720FF6027308031C730FC4
:10071000F7027408D0007508D1007608D200770877
:10072000D3000530F0007408D0007508D1007608B9
:10073000D2007708D30070080319A52BD30CD20C74
:10074000D10CD00CD313FF3F9C2BFF305005F80089
:100750005108F0007008F8045208F0005308F10046
:100760007008F8045308F00070087804F400740866
:10077000003A0319C42B0130D002031CD102031C20
:10078000D202031CD302A52B0800031383122108F5
:10079000FF3A031DDE2B87151430FB00FF30FA00F3
:1007A000FB0BD32BD62BFA0BD32BD02B6C30FA00B0
:1007B000FA0BD82B000000008711A1010130C50001
:1007C000C60180304206F000803046067002031DEC
:1007D000EB2B45084102031C1F2C2208FF3A031D86
:1007E000F22B07150130F00043080319FB2BF00D25
:1007F0007010FF3FF52B700887042308CE002408F3
:10080000CF003D230130F000430803190B2CF00DFD
:100810007010FF3F052CF009700887052508CE00F1
:100820002608CF003D2346084206031D192C410827
:10083000450603191F2CC50A0319C60AE12BA2019C
:1008400007110D30FB00FF30FA00FB0B282C2B2C7E
:10085000FA0B282C252CF330FA00FA0B2D2C000073
:100860006530C7006E30C8006430C9002F30CA0040
:10087000CB014730CE002526080003138312FD016B
:10088000F901F80171087004031900347108750644
:10089000FA00FA1BFD09FB01F51F532CF409F509B9
:1008A000F40A0319F50AF11F5A2CF009F109F00AAC
:1008B0000319F10A71087504FA00FA1B6F2CDB2585
:1008C0007B18822CFD1F0034F009F109F00A03198E
:1008D000F10AF809F909F80A0319F90A0034F51FB1
:1008E0007E2CF11B7A2C7108F9007008F800F101D8
:1008F000F001622CF101F001F00A0034F109F00975
:10090000FB0A5F2CF80A0319F90A74087802031D20
:10091000622C75087902031D622CF901F801F00AB6
:100920000319F10AF11F622C0000FF3408000313C1
:100930008312C301C401C701420884000008C60035
:1009400083267008003A0319D02C50267008C50081
:1009500043084107F10071088400710884007008A1
:10096000800045084606031DBA2C44084302C70010
:10097000C40ABC2CC401C701440842078400000813
:10098000F1007108C6007108003A031DC82CD12C73
:10099000C30A4308143C0318D02C1330C700D12CD1
:1009A000A02C47084107F0007008840070088400FC
:1009B0008001080003138312FB01FA01F901803062
:1009C000F800FD01F11FEA2CF109F009F00A031902
:1009D000F10AFD0AF51FF22CF509F409F40A0319CE
:1009E000F50AFD0AF10CF00C031CFF2C7408F90742
:1009F00075080318750FFA070318FB0A0310F01F98
:100A0000072D7408FA070318FB0A7508FB07FB0C8F
:100A1000FA0CF90CF80C031CF22C7D1C1A2DFB09A6
:100A2000FA09F909F809F80A0319F90A0319FA0A7F
:100A30000319FB0A7B08F3007A08F2007908F10039
:100A40007808F000080003138312C50141088400F0
:100A50000008C300C401420884000008F000003010
:100A6000C4007008C302031CC40300304406031D05
:100A70003B2D00304306FF30031D0030F3004508D6
:100A8000410784000008F2007208003AFF300319A1
:100A90000030F0007308F0050319642D450AF000DA
:100AA0007008C5007008410784000008C300C40135
:100AB0007008420784000008F0000030C40070088D
:100AC000C302031CC403352D4308F0004408F100A1
:100AD000080003138312FD01F31F7B2DF009F109B8
:100AE000F209F309F00A0319F10A0319F20A0319CA
:100AF000F30A8130FD07F71F892DF409F509F6097E
:100B0000F709F40A0319F50A0319F60A0319F70A93
:100B1000FD0AA4257D1CA32DF009F109F209F309B2
:100B2000F809F909FA09FB09F00A0319F10A03198E
:100B3000F20A0319F30A0319F80A0319F90A031947
:100B4000FA0A0319FB0A0800031383122230FC007F
:100B5000F801F901FA01FB01FC030319DA2D031076
:100B6000FB0CFA0CF90CF80CF30CF20CF10CF00C79
:100B7000031CAC2DFC030319CC2D7408F807750871
:100B80000318750FF90776080318760FFA07770828
:100B90000318770FFB07B02D7408F80775080318C2
:100BA000750FF90776080318760FFA077708031808
:100BB000770FFB07080003138312710DF80DF90D71
:100BC0007408F8027508031C750FF902F00DF10D99
:100BD0000F30FC00710DF80DF90D7408701CF62D26
:100BE000F8027508031C750FF902FB2DF80775084C
:100BF0000318750FF907F00DF10DFC0BEA2D7018B5
:100C0000072E7408F80775080318750FF907080010
:100C100003138312F801F9011030FC00710DF80D77
:100C2000F90D7408F8027508031C750FF902031812
:100C3000202E7408F80775080318750FF9070310BC
:100C4000F00DF10DFC0B0E2E080003138312CF01E3
:100C50004E0884000008D0005008003A03193A2ECC
:100C60005008D4006326CF0A4F084E0784000008BE
:100C7000D0002C2E08000313831698169030831290
:100C8000980083168616861783120C08F100003030
:100C9000F11A0130F1007108013A0319442E0800DD
:100CA000031383121A08CE001808F1000030F1185F
:100CB0000130F1007108013A031D602E1812181658
:100CC0004E08F0000800031383161808F1000030E6
:100CD000F1180130F1007108003A031D712E000077
:100CE000632E831254089900080003138312FB0932
:100CF000FA09F909F809F80A0319F90A0319FA0AAD
:100D00000319FB0A0800031383120C08F1000030DA
:100D1000F11A0130F1007108CE004E08F000080011
:02400E00C430BC
:00000001FF
