:100000003229FF3FFF3FFF3F031383127408F802BA
:100010007508031C750FF9027608031C760FFA02A7
:100020007708031C770FFB02F30D0730FC00730DFC
:10003000F80DF90DFA0DFB0D7408731C2D28F8024C
:100040007508031C750FF9027608031C760FFA0277
:100050007708031C770FFB023A28F8077508031886
:10006000750FF90776080318760FFA077708031853
:10007000770FFB07F30DFC0B1728720DF80DF90D28
:10008000FA0DFB0D7408731C5328F8027508031C45
:10009000750FF9027608031C760FFA027708031C25
:1000A000770FFB026028F80775080318750FF9072A
:1000B00076080318760FFA0777080318770FFB07FF
:1000C000F20D0730FC00720DF80DF90DFA0DFB0D65
:1000D0007408721C7928F8027508031C750FF90260
:1000E0007608031C760FFA027708031C770FFB02D1
:1000F0008628F80775080318750FF907760803189E
:10010000760FFA0777080318770FFB07F20DFC0B41
:100110006328710DF80DF90DFA0DFB0D7408721CB2
:100120009F28F8027508031C750FF9027608031C56
:10013000760FFA027708031C770FFB02AC28F8074A
:1001400075080318750FF90776080318760FFA0774
:1001500077080318770FFB07F10D0730FC00710DCE
:10016000F80DF90DFA0DFB0D7408711CC528F80285
:100170007508031C750FF9027608031C760FFA0246
:100180007708031C770FFB02D228F80775080318BD
:10019000750FF90776080318760FFA077708031822
:1001A000770FFB07F10DFC0BAF28700DF80DF90D63
:1001B000FA0DFB0D7408711CEB28F8027508031C7E
:1001C000750FF9027608031C760FFA027708031CF4
:1001D000770FFB02F828F80775080318750FF90761
:1001E00076080318760FFA0777080318770FFB07CE
:1001F000F00D0730FC00700DF80DF90DFA0DFB0D38
:100200007408701C1129F8027508031C750FF90297
:100210007608031C760FFA027708031C770FFB029F
:100220001E29F80775080318750FF90776080318D3
:10023000760FFA0777080318770FFB07F00DFC0B12
:10024000FB28701831297408F80775080318750F12
:10025000F90776080318760FFA0777080318770F5F
:10026000FB070800FF300313831685007F308600EC
:1002700087018B01031783129E019F0103138701DE
:100280001930A300A4011930A500A601A101A20103
:10029000193083169900181511264726700803197E
:1002A000D8292730C3005C30BB00BC013B30C40000
:1002B00083242E30C3002F30BB00BC013B30C40070
:1002C00083242730C300DA217008C1007108C200FE
:1002D0004108B5004208B600E830F4000330F500EC
:1002E0004108F0004208F10029247008BF0071089D
:1002F000C0003F08B7004008B8003F08F0004008C1
:10030000F100E830F4000330F500C6247008410223
:10031000B9007108031C013F4202BA0000304006D8
:10032000031D942901303F06031D9D293908C30090
:100330003A08C400C501C601BE2300303806031DBB
:10034000A32902303706031DAD293908C3003A0836
:10035000C4000130C500C601BE232E30C300693081
:10036000BB006E30BC007630BD00BE013B30C40027
:100370000F2500307106031DBF2900307006031DD4
:10038000C329FF30A1002E30C3006E30BB006F3098
:10039000BC007230BD00BE013B30C4000F250030F0
:1003A0007106031DD52900307006031DD829A1014F
:1003B0004D29D92903138312C401C5011030C80087
:1003C0002730C900C601C701CC01CD01CE01CF0144
:1003D000CA01CB014608430784000008F4007408F2
:1003E000003A0319562A4608430784000008F4001F
:1003F00074082D3A031D032AFF30CA00CB01C60A38
:100400000319C70AEA294608430784000008F400D4
:100410007408203A0319462A460843078400000856
:10042000F0003030F800F901FA01FB017008F40027
:10043000F501F601F7017408F0007508F10076087F
:10044000F2007708F3007808F0027908031C790FAE
:10045000F1027A08031C7A0FF2027B08031C7B0F5F
:10046000F3024808F4004908F500F601F7015525A4
:100470007008CC0771080318710FCD0772080318B4
:10048000720FCE0773080318730FCF070A30F400FA
:10049000F5014808F0004908F100F4257008C8008B
:1004A0007108C900C60A0319C70AEA294A084B0499
:1004B00003195E2A0630C800C901612A0530C80048
:1004C000C90147084906031D672A4808460603195B
:1004D000832A0A30F400F501F601F7014C08F00018
:1004E0004D08F1004E08F2004F08F3009C227008FE
:1004F000CC007108CD007208CE007308CF00C60A88
:100500000319C70A612A4C08C4004D08C500003011
:100510004B06031D8D2AFF304A06031D972A440807
:10052000003CC4004508031C013FC501C502440846
:10053000F0004508F100080003138312FC01F71BCB
:10054000FC0AFD01FB01FA01F901F80173087204CC
:10055000710470040319302B73087706A000A01BE8
:10056000FD09F71FBE2AF409F509F609F709F40A8F
:100570000319F50A0319F60A0319F70AF31FCB2A20
:10058000F009F109F209F309F00A0319F10A031954
:10059000F20A0319F30A73087704A000A01BEC2ADF
:1005A0000420FC1B092BFD1F302BF009F109F20977
:1005B000F309F00A0319F10A0319F20A0319F30AFD
:1005C000F809F909FA09FB09F80A0319F90A0319E4
:1005D000FA0A0319FB0A302BF71F032BF31BFD2A22
:1005E0007308FB007208FA007108F9007008F8003F
:1005F000F301F201F101F001D32AF301F201F1015B
:10060000F001F00A0034F309F209F109F009FC17CE
:10061000D02AF80A0319F90A0319FA0A0319FB0A7E
:1006200074087802031DD32A75087902031DD32AA2
:1006300076087A02031DD32A77087B02031DD32A8A
:10064000FB01FA01F901F801F00A0319F10A031993
:10065000F20A0319F30AF31FD32AA0012016FF346C
:10066000A0017C1C342B3926003F0800E83003131E
:100670008312D2000330D300D401D5015008F0001A
:100680005108F100F201F301E830F4000330F50005
:100690000030F6000030F70090257008D200710895
:1006A000D3007208D4007308D50000307302031D14
:1006B000632B00307202031D632B02307102031D95
:1006C000632BA33070020318662BBD2BA330F00000
:1006D0000230F100F201F3015208F4005308F50072
:1006E0005408F6005508F7007008F4027108031C5E
:1006F000710FF5027208031C720FF6027308031CD7
:10070000730FF7027408D2007508D3007608D4007E
:100710007708D5000530F0007408D2007508D300C2
:100720007608D4007708D500700803199E2BD50CE5
:10073000D40CD30CD20CD513FF3F952BFF305205B0
:10074000F8005308F0007008F8045408F000550849
:10075000F1007008F8045508F00070087804F400FF
:100760007408003A0319BD2B0130D202031CD302D6
:10077000031CD402031CD5029E2B08000313831212
:100780002108FF3A031DD62B87140D30FB00FF30E4
:10079000FA00FB0BCC2BCF2BFA0BCC2BC92BF33055
:1007A000FA00FA0BD12B00008710A1012208FF3AB2
:1007B000031DEC2B07150D30FB00FF30FA00FB0B7F
:1007C000E22BE52BFA0BE22BDF2BF330FA00FA0BCE
:1007D000E72B00000711A2010130C700C8018030DB
:1007E0004406F000803048067002031DF92B4708CC
:1007F0004302031C282C0130F00045080319042C87
:10080000F00D7010FF3FFE2B700887042308D00006
:100810002408D10036230130F00045080319142CB8
:10082000F00D7010FF3F0E2CF009700887052508A9
:10083000D0002608D100362348084406031D222C88
:10084000430847060319282CC70A0319C80AEF2BC7
:10085000080003138312FD01F901F8017108700407
:100860000319003471087506FA00FA1BFD09FB0133
:10087000F51F3F2CF409F509F40A0319F50AF11FD5
:10088000462CF009F109F00A0319F10A7108750400
:10089000FA00FA1B5B2CC7257B186E2CFD1F003459
:1008A000F009F109F00A0319F10AF809F909F80A3F
:1008B0000319F90A0034F51F6A2CF11B662C710824
:1008C000F9007008F800F101F0014E2CF101F0017F
:1008D000F00A0034F109F009FB0A4B2CF80A03195D
:1008E000F90A74087802031D4E2C75087902031D5D
:1008F0004E2CF901F801F00A0319F10AF11F4E2CF0
:100900000000FF34080003138312C501C601C901AA
:10091000440884000008C80047267008003A0319FC
:10092000BC2C26267008C70045084307F100710853
:100930008400710884007008800047084806031D81
:10094000A62C46084502C900C60AA82CC601C90142
:100950004608440784000008F1007108C8007108C7
:10096000003A031DB42CBD2CC50A4508143C0318DD
:10097000BC2C1330C900BD2C8C2C49084307F00057
:10098000700884007008840080010800031383123B
:10099000FB01FA01F9018030F800FD01F11FD62CAE
:1009A000F109F009F00A0319F10AFD0AF51FDE2C1E
:1009B000F509F409F40A0319F50AFD0AF10CF00C23
:1009C000031CEB2C7408F90775080318750FFA0758
:1009D0000318FB0A0310F01FF32C7408FA0703181E
:1009E000FB0A7508FB07FB0CFA0CF90CF80C031C4E
:1009F000DE2C7D1C062DFB09FA09F909F809F80A15
:100A00000319F90A0319FA0A0319FB0A7B08F30010
:100A10007A08F2007908F1007808F0000800031362
:100A20008312C701430884000008C500C6014408BA
:100A300084000008F0000030C6007008C502031CE6
:100A4000C60300304606031D272D00304506FF3043
:100A5000031D0030F3004708430784000008F2003C
:100A60007208003AFF3003190030F0007308F005F7
:100A70000319502D470AF0007008C700700843079B
:100A800084000008C500C6017008440784000008FF
:100A9000F0000030C6007008C502031CC603212DFB
:100AA0004508F0004608F100080003138312FD0119
:100AB000F31F672DF009F109F209F309F00A031990
:100AC000F10A0319F20A0319F30A8130FD07F71F2F
:100AD000752DF409F509F609F709F40A0319F50A61
:100AE0000319F60A0319F70AFD0A90257D1C8F2DBC
:100AF000F009F109F209F309F809F909FA09FB0902
:100B0000F00A0319F10A0319F20A0319F30A031987
:100B1000F80A0319F90A0319FA0A0319FB0A08006B
:100B2000031383122230FC00F801F901FA01FB01E2
:100B3000FC030319C62D0310FB0CFA0CF90CF80C7E
:100B4000F30CF20CF10CF00C031C982DFC030319B0
:100B5000B82D7408F80775080318750FF90776089B
:100B60000318760FFA0777080318770FFB079C2DF9
:100B70007408F80775080318750FF9077608031845
:100B8000760FFA0777080318770FFB07080003139F
:100B90008312710DF80DF90D7408F8027508031C25
:100BA000750FF902F00DF10D0F30FC00710DF80D0D
:100BB000F90D7408701CE22DF8027508031C750FFE
:100BC000F902E72DF80775080318750FF907F00DFE
:100BD000F10DFC0BD62D7018F32D7408F80775086D
:100BE0000318750FF907080003138312F801F901C0
:100BF0001030FC00710DF80DF90D7408F80275083D
:100C0000031C750FF90203180C2E7408F8077508F9
:100C10000318750FF9070310F00DF10DFC0BFA2DF9
:100C200008000313831698169030831298008316D9
:100C30008616861783120C08F1000030F11A013075
:100C4000F1007108013A03191A2E080003138312E8
:100C50001A08D0001808F1000030F1180130F10036
:100C60007108013A031D362E181218165008F000AC
:100C7000080003138312FB09FA09F909F809F80AB5
:100C80000319F90A0319FA0A0319FB0A08000313E6
:100C900083120C08F1000030F11A0130F1007108E4
:100CA000D0005008F0000800FF3FFF3FFF3FFF3F2C
:02400E00C430BC
:00000001FF
