:100000003229FF3FFF3FFF3F031383127408F802BA
:100010007508031C750FF9027608031C760FFA02A7
:100020007708031C770FFB02F30D0730FC00730DFC
:10003000F80DF90DFA0DFB0D7408731C2D28F8024C
:100040007508031C750FF9027608031C760FFA0277
:100050007708031C770FFB023A28F8077508031886
:10006000750FF90776080318760FFA077708031853
:10007000770FFB07F30DFC0B1728720DF80DF90D28
:10008000FA0DFB0D7408731C5328F8027508031C45
:10009000750FF9027608031C760FFA027708031C25
:1000A000770FFB026028F80775080318750FF9072A
:1000B00076080318760FFA0777080318770FFB07FF
:1000C000F20D0730FC00720DF80DF90DFA0DFB0D65
:1000D0007408721C7928F8027508031C750FF90260
:1000E0007608031C760FFA027708031C770FFB02D1
:1000F0008628F80775080318750FF907760803189E
:10010000760FFA0777080318770FFB07F20DFC0B41
:100110006328710DF80DF90DFA0DFB0D7408721CB2
:100120009F28F8027508031C750FF9027608031C56
:10013000760FFA027708031C770FFB02AC28F8074A
:1001400075080318750FF90776080318760FFA0774
:1001500077080318770FFB07F10D0730FC00710DCE
:10016000F80DF90DFA0DFB0D7408711CC528F80285
:100170007508031C750FF9027608031C760FFA0246
:100180007708031C770FFB02D228F80775080318BD
:10019000750FF90776080318760FFA077708031822
:1001A000770FFB07F10DFC0BAF28700DF80DF90D63
:1001B000FA0DFB0D7408711CEB28F8027508031C7E
:1001C000750FF9027608031C760FFA027708031CF4
:1001D000770FFB02F828F80775080318750FF90761
:1001E00076080318760FFA0777080318770FFB07CE
:1001F000F00D0730FC00700DF80DF90DFA0DFB0D38
:100200007408701C1129F8027508031C750FF90297
:100210007608031C760FFA027708031C770FFB029F
:100220001E29F80775080318750FF90776080318D3
:10023000760FFA0777080318770FFB07F00DFC0B12
:10024000FB28701831297408F80775080318750F12
:10025000F90776080318760FFA0777080318770F5F
:10026000FB070800FF300313831685007F308600EC
:1002700087018B01031783129E019F0103138701DE
:100280001930A300A4011930A500A601A201A10103
:100290001930831699001815FE25342670080319A5
:1002A000D4292730C1005C30BB00BC013B30C20008
:1002B00070242E30C1002F30BB00BC013B30C20087
:1002C00070242730C100D6217008B5007108B6002F
:1002D0002E30C1006930BB006E30BC007630BD00EE
:1002E000BE013B30C200FC2400307106031D7A2998
:1002F00000307006031D7E29FF30A2002E30C100A1
:100300006E30BB006F30BC007230BD00BE013B30B0
:10031000C200FC2400307106031D902900307006D5
:10032000031D9329A201E830F4000330F5003508DD
:10033000F0003608F10016247008BF007108C000F4
:100340003F08B7004008B8003F08F0004008F1003F
:10035000E830F4000330F500B32470083502B9002A
:100360007108031C013F3602BA0000304006031D2D
:10037000BB2901303F06031DC4293908C1003A08D2
:10038000C200C301C401BA2300303806031DCA29C4
:1003900002303706031DD4293908C1003A08C200CB
:1003A0000130C300C401BA234D29D5290313831298
:1003B000C201C3011030C6002730C700C401C50107
:1003C000CA01CB01CC01CD01C801C90144084107D4
:1003D00084000008F4007408003A0319522A440803
:1003E000410784000008F40074082D3A031DFF291A
:1003F000FF30C800C901C40A0319C50AE629440828
:10040000410784000008F4007408203A0319422AC6
:100410004408410784000008F0003030F800F9017A
:10042000FA01FB017008F400F501F601F701740808
:10043000F0007508F1007608F2007708F3007808FC
:10044000F0027908031C790FF1027A08031C7A0F75
:10045000F2027B08031C7B0FF3024608F4004708F6
:10046000F500F601F70142257008CA077108031864
:10047000710FCB0772080318720FCC0773080318AB
:10048000730FCD070A30F400F5014608F000470865
:10049000F100E1257008C6007108C700C40A0319FD
:1004A000C50AE6294808490403195A2A0630C60035
:1004B000C7015D2A0530C600C70145084706031D70
:1004C000632A4608440603197F2A0A30F400F5011E
:1004D000F601F7014A08F0004B08F1004C08F20061
:1004E0004D08F30098227008CA007108CB0072080A
:1004F000CC007308CD00C40A0319C50A5D2A4A0856
:10050000C2004B08C30000304906031D892AFF3092
:100510004806031D932A4208003CC2004308031CFE
:10052000013FC301C3024208F0004308F100080084
:1005300003138312FC01F71BFC0AFD01FB01FA0106
:10054000F901F801730872047104700403192C2B6B
:1005500073087706A000A01BFD09F71FBA2AF4094B
:10056000F509F609F709F40A0319F50A0319F60A59
:100570000319F70AF31FC72AF009F109F209F30971
:10058000F00A0319F10A0319F20A0319F30A7308AE
:100590007704A000A01BE82A0420FC1B052BFD1FEC
:1005A0002C2BF009F109F209F309F00A0319F10AF9
:1005B0000319F20A0319F30AF809F909FA09FB0900
:1005C000F80A0319F90A0319FA0A0319FB0A2C2B72
:1005D000F71FFF2AF31BF92A7308FB007208FA00C1
:1005E0007108F9007008F800F301F201F101F0015F
:1005F000CF2AF301F201F101F001F00A0034F3090E
:10060000F209F109F009FC17CC2AF80A0319F90AD2
:100610000319FA0A0319FB0A74087802031DCF2A8A
:1006200075087902031DCF2A76087A02031DCF2AA6
:1006300077087B02031DCF2AFB01FA01F901F801BB
:10064000F00A0319F10A0319F20A0319F30AF31F56
:10065000CF2AA0012016FF34A0017C1C302B2626B7
:10066000003F0800E83003138312D0000330D100AC
:10067000D201D3014E08F0004F08F100F201F3015E
:10068000E830F4000330F5000030F6000030F700E9
:100690007D257008D0007108D1007208D20073085F
:1006A000D30000307302031D5F2B00307202031D64
:1006B0005F2B02307102031D5F2BA3307002031801
:1006C000622BB92BA330F0000230F100F201F301EC
:1006D0005008F4005108F5005208F6005308F700DE
:1006E0007008F4027108031C710FF5027208031CF4
:1006F000720FF6027308031C730FF7027408D00020
:100700007508D1007608D2007708D3000530F000D4
:100710007408D0007508D1007608D2007708D3009D
:10072000700803199A2BD30CD20CD10CD00CD31314
:10073000FF3F912BFF305005F8005108F000700882
:10074000F8045208F0005308F1007008F804530848
:10075000F00070087804F4007408003A0319B92B0B
:100760000130D002031CD102031CD202031CD302AD
:100770009A2B0800031383122108FF3A031DD22B82
:1007800087150D30FB00FF30FA00FB0BC82BCB2B7D
:10079000FA0BC82BC52BF330FA00FA0BCD2B000057
:1007A0008711A1010130C500C60180304206F0006A
:1007B000803046067002031DDF2B45084102031CF2
:1007C000132C2208FF3A031DE62B07150130F00019
:1007D00043080319EF2BF00D7010FF3FE92B700851
:1007E00087042308CE002408CF0032230130F00014
:1007F00043080319FF2BF00D7010FF3FF92BF00990
:10080000700887052508CE002608CF003223460849
:100810004206031D0D2C410845060319132CC50A79
:100820000319C60AD52BA20107110800031383126E
:10083000FD01F901F8017108700403190034710811
:100840007506FA00FA1BFD09FB01F51F2C2CF409B3
:10085000F509F40A0319F50AF11F332CF009F1091F
:10086000F00A0319F10A71087504FA00FA1B482C02
:10087000B4257B185B2CFD1F0034F009F109F00A48
:100880000319F10AF809F909F80A0319F90A0034F9
:10089000F51F572CF11B532C7108F9007008F80054
:1008A000F101F0013B2CF101F001F00A0034F109F3
:1008B000F009FB0A382CF80A0319F90A74087802BF
:1008C000031D3B2C75087902031D3B2CF901F8012F
:1008D000F00A0319F10AF11F3B2C0000FF34080055
:1008E00003138312C301C401C70142088400000836
:1008F000C60034267008003A0319A92C1326700884
:10090000C50043084107F1007108840071088400A4
:100910007008800045084606031D932C44084302D6
:10092000C700C40A952CC401C701440842078400CB
:100930000008F1007108C6007108003A031DA12CDF
:10094000AA2CC30A4308143C0318A92C1330C7006F
:10095000AA2C792C47084107F00070088400700821
:1009600084008001080003138312FB01FA01F901DE
:100970008030F800FD01F11FC32CF109F009F00AE5
:100980000319F10AFD0AF51FCB2CF509F409F40A45
:100990000319F50AFD0AF10CF00C031CD82C74089D
:1009A000F90775080318750FFA070318FB0A0310F7
:1009B000F01FE02C7408FA070318FB0A7508FB0700
:1009C000FB0CFA0CF90CF80C031CCB2C7D1CF32C43
:1009D000FB09FA09F909F809F80A0319F90A0319D0
:1009E000FA0A0319FB0A7B08F3007A08F200790877
:1009F000F1007808F000080003138312C5014108D4
:100A000084000008C300C401420884000008F0000C
:100A10000030C4007008C302031CC4030030440645
:100A2000031D142D00304306FF30031D0030F3007A
:100A30004508410784000008F2007208003AFF30C0
:100A400003190030F0007308F00503193D2D450A25
:100A5000F0007008C5007008410784000008C3005A
:100A6000C4017008420784000008F0000030C40090
:100A70007008C302031CC4030E2D4308F000440891
:100A8000F100080003138312FD01F31F542DF00938
:100A9000F109F209F309F00A0319F10A0319F20A3C
:100AA0000319F30A8130FD07F71F622DF409F509D8
:100AB000F609F709F40A0319F50A0319F60A0319E6
:100AC000F70AFD0A7D257D1C7C2DF009F109F2094C
:100AD000F309F809F909FA09FB09F00A0319F10AFF
:100AE0000319F20A0319F30A0319F80A0319F90A98
:100AF0000319FA0A0319FB0A0800031383122230B0
:100B0000FC00F801F901FA01FB01FC030319B32D04
:100B10000310FB0CFA0CF90CF80CF30CF20CF10CB2
:100B2000F00C031C852DFC030319A52D7408F80790
:100B300075080318750FF90776080318760FFA077A
:100B400077080318770FFB07892D7408F8077508D5
:100B50000318750FF90776080318760FFA07770858
:100B60000318770FFB07080003138312710DF80DAC
:100B7000F90D7408F8027508031C750FF902F00DE1
:100B8000F10D0F30FC00710DF80DF90D7408701C9B
:100B9000CF2DF8027508031C750FF902D42DF80744
:100BA00075080318750FF907F00DF10DFC0BC32D37
:100BB0007018E02D7408F80775080318750FF90709
:100BC000080003138312F801F9011030FC00710DC5
:100BD000F80DF90D7408F8027508031C750FF90279
:100BE0000318F92D7408F80775080318750FF9072D
:100BF0000310F00DF10DFC0BE72D08000313831615
:100C000098169030831298008316861686178312E2
:100C10000C08F1000030F11A0130F1007108013ABE
:100C20000319072E0800031383121A08CE001808B0
:100C3000F1000030F1180130F1007108013A031D94
:100C4000232E181218164E08F00008000313831202
:100C5000FB09FA09F909F809F80A0319F90A03194D
:100C6000FA0A0319FB0A0800031383120C08F100A7
:100C70000030F11A0130F1007108CE004E08F0008A
:100C80000800FF3FFF3FFF3FFF3FFF3FFF3FFF3FAA
:02400E00C430BC
:00000001FF
