:10000000162BFF3FFF3FFF3F031383127408F802D4
:100010007508031C750FF9027608031C760FFA02A7
:100020007708031C770FFB02F30D0730FC00730DFC
:10003000F80DF90DFA0DFB0D7408731C2D28F8024C
:100040007508031C750FF9027608031C760FFA0277
:100050007708031C770FFB023A28F8077508031886
:10006000750FF90776080318760FFA077708031853
:10007000770FFB07F30DFC0B1728720DF80DF90D28
:10008000FA0DFB0D7408731C5328F8027508031C45
:10009000750FF9027608031C760FFA027708031C25
:1000A000770FFB026028F80775080318750FF9072A
:1000B00076080318760FFA0777080318770FFB07FF
:1000C000F20D0730FC00720DF80DF90DFA0DFB0D65
:1000D0007408721C7928F8027508031C750FF90260
:1000E0007608031C760FFA027708031C770FFB02D1
:1000F0008628F80775080318750FF907760803189E
:10010000760FFA0777080318770FFB07F20DFC0B41
:100110006328710DF80DF90DFA0DFB0D7408721CB2
:100120009F28F8027508031C750FF9027608031C56
:10013000760FFA027708031C770FFB02AC28F8074A
:1001400075080318750FF90776080318760FFA0774
:1001500077080318770FFB07F10D0730FC00710DCE
:10016000F80DF90DFA0DFB0D7408711CC528F80285
:100170007508031C750FF9027608031C760FFA0246
:100180007708031C770FFB02D228F80775080318BD
:10019000750FF90776080318760FFA077708031822
:1001A000770FFB07F10DFC0BAF28700DF80DF90D63
:1001B000FA0DFB0D7408711CEB28F8027508031C7E
:1001C000750FF9027608031C760FFA027708031CF4
:1001D000770FFB02F828F80775080318750FF90761
:1001E00076080318760FFA0777080318770FFB07CE
:1001F000F00D0730FC00700DF80DF90DFA0DFB0D38
:100200007408701C1129F8027508031C750FF90297
:100210007608031C760FFA027708031C770FFB029F
:100220001E29F80775080318750FF90776080318D3
:10023000760FFA0777080318770FFB07F00DFC0B12
:10024000FB28701831297408F80775080318750F12
:10025000F90776080318760FFA0777080318770F5F
:10026000FB07080003138312B301B4011030B70079
:100270002730B800B501B601BB01BC01BD01BE010C
:10028000B901BA013508320784000008F400740887
:10029000003A0319AE293508320784000008F4003B
:1002A00074082D3A031D5B29FF30B900BA01B50A65
:1002B0000319B60A42293508320784000008F40001
:1002C0007408203A03199E29350832078400000873
:1002D000F0003030F800F901FA01FB017008F40079
:1002E000F501F601F7017408F0007508F1007608D1
:1002F000F2007708F3007808F0027908031C790F00
:10030000F1027A08031C7A0FF2027B08031C7B0FB0
:10031000F3023708F4003808F500F601F701072466
:100320007008BB0771080318710FBC077208031827
:10033000720FBD0773080318730FBE070A30F4006D
:10034000F5013708F0003808F10079247008B7008B
:100350007108B800B50A0319B60A422939083A04E7
:100360000319B6290630B700B801B9290530B7001E
:10037000B80136083806031DBF29370835060319AA
:10038000DB290A30F400F501F601F7013B08F00023
:100390003C08F1003D08F2003E08F300F42170082B
:1003A000BB007108BC007208BD007308BE00B50A2E
:1003B0000319B60AB9293B08B3003C08B400003061
:1003C0003A06031DE529FF303906031DEF293308DE
:1003D000003CB3003408031C013FB401B4023308ED
:1003E000F0003408F100080003138312FC01F71B2E
:1003F000FC0AFD01FB01FA01F901F801730872041E
:10040000710470040319882A73087706A000A01BE2
:10041000FD09F71F162AF409F509F609F709F40A88
:100420000319F50A0319F60A0319F70AF31F232A19
:10043000F009F109F209F309F00A0319F10A0319A5
:10044000F20A0319F30A73087704A000A01B442AD8
:100450000420FC1B612AFD1F882AF009F109F2091A
:10046000F309F00A0319F10A0319F20A0319F30A4E
:10047000F809F909FA09FB09F80A0319F90A031935
:10048000FA0A0319FB0A882AF71F5B2AF31B552A6D
:100490007308FB007208FA007108F9007008F80090
:1004A000F301F201F101F0012B2AF301F201F10154
:1004B000F001F00A0034F309F209F109F009FC1720
:1004C000282AF80A0319F90A0319FA0A0319FB0A78
:1004D00074087802031D2B2A75087902031D2B2A44
:1004E00076087A02031D2B2A77087B02031D2B2A2C
:1004F000FB01FA01F901F801F00A0319F10A0319E5
:10050000F20A0319F30AF31F2B2AA0012016FF3465
:10051000A0017C1C8C2AE624003F0800E83003136D
:100520008312C1000330C200C301C4013F08F000C0
:100530004008F100F201F301E830F4000330F50067
:100540000030F6000030F70042247008C100710846
:10055000C2007208C3007308C40000307302031D98
:10056000BB2A00307202031DBB2A02307102031D38
:10057000BB2AA33070020318BE2A152BA330F0004B
:100580000230F100F201F3014108F4004208F500E5
:100590004308F6004408F7007008F4027108031CD1
:1005A000710FF5027208031C720FF6027308031C28
:1005B000730FF7027408C1007508C2007608C30003
:1005C0007708C4000530F0007408C1007508C20047
:1005D0007608C3007708C40070080319F62AC40C13
:1005E000C30CC20CC10CC413FF3FED2AFF30410500
:1005F000F8004208F0007008F8044308F0004408CE
:10060000F1007008F8044408F00070087804F40061
:100610007408003A0319152B0130C102031CC202F1
:10062000031CC302031CC402F62A0800FF30031394
:10063000831685007F30860087018B0103178312A4
:100640009E019F0103138701193083169900181525
:10065000AC241930A300A4011930A500A601A10102
:10066000A201F424700803196C2B2730B2002F303C
:10067000B000B1013030B300C4232730B20096245B
:100680002730B20032217008AE007108AF00803010
:100690007106F2008030033A7202031D512BE830DC
:1006A00070020318582B2E08B2002F08B3006E23D7
:1006B0002F08033A031D5E2BE8302E06031D622B24
:1006C000FF30A1002F08033A031D682BEA302E06E5
:1006D000031D6C2BFF30A200312B6D2B03138312F3
:1006E0002108FF3A031D862B87140D30FB00FF30D5
:1006F000FA00FB0B7C2B7F2BFA0B7C2B792BF33036
:10070000FA00FA0B812B00008710A1012208FF3AA2
:10071000031D9C2B07150D30FB00FF30FA00FB0B6F
:10072000922B952BFA0B922B8F2BF330FA00FA0BAE
:10073000972B00000711A2010130B400B5018030F1
:100740003306F000803035067002031DA92B3408F3
:100750003202031CC32B07142308BF002408C00067
:100760008E2207102508BF002608C0008E223508FB
:100770003306031DBD2B320834060319C32BB40AFC
:100780000319B50A9F2B080003138312B401B501A6
:10079000B801330884000008B700F4247008003A58
:1007A0000319FD2BC1247008B60034083207F1008C
:1007B00071088400710884007008800036083706CC
:1007C000031DE72B35083402B800B50AE92BB50143
:1007D000B8013508330784000008F1007108B7003C
:1007E0007108003A031DF52BFE2BB40A3408143CA3
:1007F0000318FD2B1330B800FE2BCD2B3808320721
:10080000F000700884007008840080010800031361
:100810008312FD01F31F192CF009F109F209F30904
:10082000F00A0319F10A0319F20A0319F30A8130D5
:10083000FD07F71F272CF409F509F609F709F40A53
:100840000319F50A0319F60A0319F70AFD0A4224E7
:100850007D1C412CF009F109F209F309F809F909A5
:10086000FA09FB09F00A0319F10A0319F20A03193C
:10087000F30A0319F80A0319F90A0319FA0A031902
:10088000FB0A0800031383122230FC00F801F9016F
:10089000FA01FB01FC030319782C0310FB0CFA0C82
:1008A000F90CF80CF30CF20CF10CF00C031C4A2CB4
:1008B000FC0303196A2C7408F80775080318750FF0
:1008C000F90776080318760FFA0777080318770FE9
:1008D000FB074E2C7408F80775080318750FF90705
:1008E00076080318760FFA0777080318770FFB07C7
:1008F000080003138312F801F9011030FC00710D98
:10090000F80DF90D7408F8027508031C750FF9024B
:100910000318912C7408F80775080318750FF90768
:100920000310F00DF10DFC0B7F2C08000313831254
:10093000B301320884000008B4003408003A0319F7
:10094000AB2C3408BF00D424B30A33083207840028
:100950000008B4009D2C08000313831698169030ED
:100960008312980083168616861783120C08F100EE
:100970000030F11A0130F1007108013A0319B52C69
:100980000800031383121A08BF001808F100003092
:10099000F1180130F1007108013A031DD12C181231
:1009A00018163F08F0000800031383161808F1001A
:1009B0000030F1180130F1007108003A031DE22CFB
:1009C0000000D42C83123F089900080003138312FF
:1009D000FB09FA09F909F809F80A0319F90A0319D0
:1009E000FA0A0319FB0A0800031383120C08F1002A
:1009F0000030F11A0130F1007108BF003F08F0002B
:100A00000800FF3FFF3FFF3FFF3FFF3FFF3FFF3F2C
:02400E00FFFFB2
:00000001FF
