:10000000DA28FF3FFF3FFF3F031383122008FF3A28
:10001000031D86282108003A031D1F28A20A031980
:10002000A30A8030F000803023067002031D1A28D6
:100030002208083C03181F280130A200A301210850
:10004000FF3A031D35280130A202031CA3038030B0
:100050002306F00080307002031D30280130220298
:10006000031835280830A200A30100302306031D21
:100070003B2801302206031D3F280930870000304D
:100080002306031D452802302206031D4928083097
:10009000870000302306031D4F2803302206031D6E
:1000A00053280C30870000302306031D59280430E4
:1000B0002206031D5D280430870000302306031D3F
:1000C000632805302206031D6728063087000030AC
:1000D0002306031D6D2806302206031D71280230F9
:1000E000870000302306031D772807302206031DF2
:1000F0007B280330870000302306031D8128083049
:100100002206031D852801308700D9282108003ADE
:10011000031D9B28A20A0319A30A8030F000803037
:1001200023067002031D96282208043C03189B280E
:100130000130A200A3012108FF3A031DB1280130BC
:10014000A202031CA30380302306F000803070025B
:10015000031DAC28013022020318B1280430A2008C
:10016000A30100302306031DB72801302206031D1A
:10017000BB280830870000302306031DC128023049
:100180002206031DC5280430870000302306031D06
:10019000CB2803302206031DCF2802308700003011
:1001A0002306031DD52804302206031DD92801305B
:1001B00087000800FF300313831685007F30860018
:1001C00087018B01031783129E019F01031387018F
:1001D000A201A301A401A501A601A101FF30A00075
:1001E00001300505F1007108013A031DFE282408BD
:1001F000003A031DFE28FF30A4000420013005054D
:10020000F1007108003A031D0629A4010030851889
:100210000130F1007108013A031D1C292508003A3C
:10022000031D1C29FF30A5002108003A031D1B29CE
:10023000FF30A1001C29A101003085180130F10018
:100240007108003A031D2529A50100300519013068
:10025000F1007108013A031D49292608003A031DDF
:100260004929FF30A6002008003A031D3A29FF3033
:10027000A0004929A0018030F000803023067002E0
:10028000031D44292208043C031849290430A20014
:10029000A301003005190130F1007108003A031D77
:1002A0005229A601F0285329FF3FFF3FFF3FFF3FA0
:02400E00FFFFB2
:00000001FF
