:100000000428FF3FFF3FFF3FFF30031383168500A7
:100010007F30860087018B01031783129E019F01A9
:10002000031387011930AB00AC011930AD00AE01EC
:10003000A901AA0119308316990018158A153320D1
:100040008A118A157B208A117008003C0318D02978
:100050002F30D3005C30CD00CE014D30D400BC2514
:100060003630D3002F30CD00CE014D30D400BC252A
:100070002F30D30000237008D1007108D20051083E
:10008000BD005208BE00E830F4000330F50051080E
:10009000F0005208F10062257008A1007108A2006A
:1000A000E830F4000330F500032670085102BF0069
:1000B0007108031C013F5202C0003630D300693082
:1000C000CD006E30CE007630CF00D0014D30D40060
:1000D0004C2600307106031D6F2800307006031D8A
:1000E0007628FF30A900FF30D30092263630D300A7
:1000F0006E30CD006F30CE007230CF00D0014D3069
:10010000D4004C2600307106031D8828003070068C
:10011000031D8D28A901D30192263E08033A031D31
:100120009328E8303D06FF30031D0030F2003E0802
:10013000073A031D9D28D0303D06FF30031D0030D7
:10014000F0007008F2043E080B3A031DA928B830ED
:100150003D06FF30031D0030F0007008F2043E0839
:100160000F3A031DB528A0303D06FF30031D0030B7
:10017000F0007008F2043E08133A031DC1288830CD
:100180003D06FF30031D0030F0007008F2043E0809
:10019000173A031DCD2870303D06FF30031D003097
:1001A000F0007208F0040319512900302206031DE3
:1001B000DB2801302106031DE9282308D3008A1516
:1001C00088208A114108D3004208D400D501D60105
:1001D000E82400302206031DEF2802302106031D0B
:1001E000FE282408D3008A1588208A114308D300EA
:1001F0004408D4000130D500D601E824003022069E
:10020000031D042903302106031D12292508D300EC
:100210008A1588208A114508D3004608D400D501E4
:10022000D601E82400302206031D182904302106D7
:10023000031D27292608D3008A1588208A1147081C
:10024000D3004808D4000130D500D601E82400309E
:100250002206031D2D2905302106031D3B292708F1
:10026000D3008A1588208A114908D3004A08D4008F
:10027000D501D601E82400302206031D41290630AD
:100280002106031D50292808D3008A1588208A11C9
:100290004B08D3004C08D4000130D500D601E82427
:1002A000D02900302206031D572901302106031DE5
:1002B00064293F08C1004008C2003F08D30040083D
:1002C000D400D501D601E82400302206031D6A2996
:1002D00002302106031D78293F08C3004008C400EE
:1002E0003F08D3004008D4000130D500D601E824EF
:1002F00000302206031D7E2903302106031D8B29B1
:100300003F08C5004008C6003F08D3004008D4009D
:10031000D501D601E82400302206031D91290430BE
:100320002106031D9F293F08C7004008C8003F0859
:10033000D3004008D4000130D500D601E8240030B5
:100340002206031DA52905302106031DB2293F08F9
:10035000C9004008CA003F08D3004008D400D501B6
:10036000D601E82400302206031DB82906302106F4
:10037000031DC6293F08CB004008CC003F08D3002E
:100380004008D4000130D500D601E8243E081B3ACD
:10039000031DCC2958303D06031DD029FF30AA008B
:1003A0002128D129031383127408F8027508031C4D
:1003B000750FF9027608031C760FFA027708031C02
:1003C000770FFB02F30D0730FC00730DF80DF90DEC
:1003D000FA0DFB0D7408731CFB29F8027508031C49
:1003E000750FF9027608031C760FFA027708031CD2
:1003F000770FFB02082AF80775080318750FF9072D
:1004000076080318760FFA0777080318770FFB07AB
:10041000F30DFC0BE529720DF80DF90DFA0DFB0D2E
:100420007408731C212AF8027508031C750FF90261
:100430007608031C760FFA027708031C770FFB027D
:100440002E2AF80775080318750FF90776080318A0
:10045000760FFA0777080318770FFB07F20D0730BE
:10046000FC00720DF80DF90DFA0DFB0D7408721CED
:10047000472AF8027508031C750FF9027608031C59
:10048000760FFA027708031C770FFB02542AF8074D
:1004900075080318750FF90776080318760FFA0721
:1004A00077080318770FFB07F20DFC0B312A710D4B
:1004B000F80DF90DFA0DFB0D7408721C6D2AF80287
:1004C0007508031C750FF9027608031C760FFA02F3
:1004D0007708031C770FFB027A2AF80775080318C0
:1004E000750FF90776080318760FFA0777080318CF
:1004F000770FFB07F10D0730FC00710DF80DF90DBA
:10050000FA0DFB0D7408711C932AF8027508031C80
:10051000750FF9027608031C760FFA027708031CA0
:10052000770FFB02A02AF80775080318750FF90763
:1005300076080318760FFA0777080318770FFB077A
:10054000F10DFC0B7D2A700DF80DF90DFA0DFB0D68
:100550007408711CB92AF8027508031C750FF9029A
:100560007608031C760FFA027708031C770FFB024C
:10057000C62AF80775080318750FF90776080318D7
:10058000760FFA0777080318770FFB07F00D07308F
:10059000FC00700DF80DF90DFA0DFB0D7408701CC0
:1005A000DF2AF8027508031C750FF9027608031C90
:1005B000760FFA027708031C770FFB02EC2AF80784
:1005C00075080318750FF90776080318760FFA07F0
:1005D00077080318770FFB07F00DFC0BC92A70187A
:1005E000FF2A7408F80775080318750FF9077608CD
:1005F0000318760FFA0777080318770FFB07080030
:1006000003138312D401D5011030D8002730D9004C
:10061000D601D701DC01DD01DE01DF01DA01DB01FA
:100620005608530784000008F4007408003A0319C0
:100630007E2B5608530784000008F40074082D3AF6
:10064000031D292BFF30DA00DB01D60A0319D70A74
:10065000102B5608530784000008F4007408203A51
:1006600003196C2B5608530784000008F000303043
:10067000F800F901FA01FB017008F400F501F60138
:10068000F7017408F0007508F1007608F2007708A9
:10069000F3007808F0027908031C790FF1027A0858
:1006A000031C7A0FF2027B08031C7B0FF30258082D
:1006B000F4005908F500F601F701D1267008DC07AF
:1006C00071080318710FDD0772080318720FDE0737
:1006D00073080318730FDF070A30F400F501580898
:1006E000F0005908F1008A1500208A117008D8001E
:1006F0007108D900D60A0319D70A102B5A085B04CF
:100700000319862B0630D800D901892B0530D80073
:10071000D90157085906031D8F2B5808560603198F
:10072000AB2B0A30F400F501F601F7015C08F0008C
:100730005D08F1005E08F2005F08F300C423700852
:10074000DC007108DD007208DE007308DF00D60AE5
:100750000319D70A892B5C08D4005D08D500003046
:100760005B06031DB52BFF305A06031DBF2B540833
:10077000003CD4005508031C013FD501D5025408A4
:10078000F0005508F100080003138312FC01F71B69
:10079000FC0AFD01FB01FA01F901F801730872047A
:1007A000710470040319582C73087706A000A01B6D
:1007B000FD09F71FE62BF409F509F609F709F40A14
:1007C0000319F50A0319F60A0319F70AF31FF32BA5
:1007D000F009F109F209F309F00A0319F10A031902
:1007E000F20A0319F30A73087704A000A01B142C63
:1007F000D221FC1B312CFD1F582CF009F109F20904
:10080000F309F00A0319F10A0319F20A0319F30AAA
:10081000F809F909FA09FB09F80A0319F90A031991
:10082000FA0A0319FB0A582CF71F2B2CF31B252C53
:100830007308FB007208FA007108F9007008F800EC
:10084000F301F201F101F001FB2BF301F201F101DF
:10085000F001F00A0034F309F209F109F009FC177C
:10086000F82BF80A0319F90A0319FA0A0319FB0A03
:1008700074087802031DFB2B75087902031DFB2BFE
:1008800076087A02031DFB2B77087B02031DFB2BE6
:10089000FB01FA01F901F801F00A0319F10A031941
:1008A000F20A0319F30AF31FFB2BA0012016FF34F1
:1008B000A0017C1C5E2C8A156D208A11003F080067
:1008C000E83003138312E2000330E300E401E501A2
:1008D0006008F0006108F100F201F301E830F40073
:1008E0000330F5000030F6000030F7000C277008E8
:1008F000E2007108E3007208E4007308E5000030CC
:100900007302031D8D2C00307202031D8D2C0230EA
:100910007102031D8D2CA33070020318902CE72C5C
:10092000A330F0000230F100F201F3016208F4009C
:100930006308F5006408F6006508F7007008F40223
:100940007108031C710FF5027208031C720FF60286
:100950007308031C730FF7027408E2007508E300C4
:100960007608E4007708E5000530F0007408E2003E
:100970007508E3007608E4007708E50070080319BD
:10098000C82CE50CE40CE30CE20CE513FF3FBF2C94
:10099000FF306205F8006308F0007008F80464088E
:1009A000F0006508F1007008F8046508F0007008B0
:1009B0007804F4007408003A0319E72C0130E202CD
:1009C000031CE302031CE402031CE502C82C08001C
:1009D000031383122A08FF3A031D012D87151430D3
:1009E000FB00FF30FA00FB0BF62CF92CFA0BF62C6F
:1009F000F32C6C30FA00FA0BFB2C0000000087117E
:100A0000AA010130D700D80180305406F0008030B0
:100A100058067002031D0E2D57085302031C422D69
:100A20002908FF3A031D152D07150130F000550860
:100A300003191E2DF00D7010FF3F182D700887044C
:100A40002B08E0002C08E10060240130F00055087C
:100A500003192E2DF00D7010FF3F282DF00970089E
:100A600087052D08E0002E08E10060245808540690
:100A7000031D3C2D530857060319422DD70A0319AD
:100A8000D80A042DA90107110D30FB00FF30FA0030
:100A9000FB0B4B2D4E2DFA0B4B2D482DF330FA004E
:100AA000FA0B502D00006530D9006E30DA0064304A
:100AB000DB002F30DC00DD015930E0008A151D20FD
:100AC0008A11080003138312FD01F901F80171086E
:100AD00070040319003471087506FA00FA1BFD0949
:100AE000FB01F51F782DF409F509F40A0319F50A3D
:100AF000F11F7F2DF009F109F00A0319F10A7108BD
:100B00007504FA00FA1B942D43277B18A72DFD1FAF
:100B10000034F009F109F00A0319F10AF809F9099A
:100B2000F80A0319F90A0034F51FA32DF11B9F2DB4
:100B30007108F9007008F800F101F001872DF1014A
:100B4000F001F00A0034F109F009FB0A842DF80ADB
:100B50000319F90A74087802031D872D75087902B4
:100B6000031D872DF901F801F00A0319F10AF11F9D
:100B7000872D0000FF34080003138312D501D6012E
:100B8000D901540884000008D8008A157B208A11F6
:100B90007008003A0319F92D8A1548208A11700847
:100BA000D70055085307F1007108840071088400CC
:100BB0007008800057085806031DE32D560855029B
:100BC000D900D60AE52DD601D9015608540784006C
:100BD0000008F1007108D8007108003A031DF12DDA
:100BE000FA2DD50A5508143C0318F92D1330D900F5
:100BF000FA2DC52D59085307F000700884007008BD
:100C000084008001080003138312FB01FA01F9013B
:100C10008030F800FD01F11F132EF109F009F00AF0
:100C20000319F10AFD0AF51F1B2EF509F409F40A50
:100C30000319F50AFD0AF10CF00C031C282E7408A8
:100C4000F90775080318750FFA070318FB0A031054
:100C5000F01F302E7408FA070318FB0A7508FB070B
:100C6000FB0CFA0CF90CF80C031C1B2E7D1C432EFC
:100C7000FB09FA09F909F809F80A0319F90A03192D
:100C8000FA0A0319FB0A7B08F3007A08F2007908D4
:100C9000F1007808F000080003138312D70153080D
:100CA00084000008D500D601540884000008F00034
:100CB0000030D6007008D502031CD603003056065B
:100CC000031D642E00305506FF30031D0030F30075
:100CD0005708530784000008F2007208003AFF30FA
:100CE00003190030F0007308F00503198D2E570A20
:100CF000F0007008D7007008530784000008D50082
:100D0000D6017008540784000008F0000030D600B7
:100D10007008D502031CD6035E2E5508F000560855
:100D2000F10008000030031383122206031D9A2EDF
:100D300001302106031D9E2E5308A3000030220619
:100D4000031DA42E02302106031DA82E5308A40063
:100D500000302206031DAE2E03302106031DB22EE5
:100D60005308A50000302206031DB82E04302106CA
:100D7000031DBC2E5308A60000302206031DC22E00
:100D800005302106031DC62E5308A7000030220699
:100D9000031DCC2E06302106031DD02E5308A800BB
:100DA000080003138312FD01F31FE32EF009F1097C
:100DB000F209F309F00A0319F10A0319F20A0319F7
:100DC000F30A8130FD07F71FF12EF409F509F60942
:100DD000F709F40A0319F50A0319F60A0319F70AC1
:100DE000FD0A0C277D1C0B2FF009F109F209F3090C
:100DF000F809F909FA09FB09F00A0319F10A0319BC
:100E0000F20A0319F30A0319F80A0319F90A031974
:100E1000FA0A0319FB0A0800031383122230FC00AC
:100E2000F801F901FA01FB01FC030319422F031039
:100E3000FB0CFA0CF90CF80CF30CF20CF10CF00CA6
:100E4000031C142FFC030319342F7408F8077508CA
:100E50000318750FF90776080318760FFA07770855
:100E60000318770FFB07182F7408F8077508031885
:100E7000750FF90776080318760FFA077708031835
:100E8000770FFB07080003138312710DF80DF90D9E
:100E90007408F8027508031C750FF902F00DF10DC6
:100EA0000F30FC00710DF80DF90D7408701C5E2FE9
:100EB000F8027508031C750FF902632FF80775080F
:100EC0000318750FF907F00DF10DFC0B522F701878
:100ED0006F2F7408F80775080318750FF9070800D5
:100EE000FF3FFF3FFF3FFF3FFF3FFF3FFF3FFF3F12
:100EF000FF3FFF3FFF3FFF3FFF3FFF3FFF3FFF3F02
:100F0000FF3FFF3FFF3FFF3FFF3FFF3FFF3FFF3FF1
:100F1000FF3FFF3FFF3FFF3FFF3FFF3FFF3FFF3FE1
:100F2000FF3FFF3FFF3FFF3FFF3FFF3FFF3FFF3FD1
:100F3000FF3FFF3FFF3FFF3FFF3FFF3FFF3FFF3FC1
:100F4000FF3FFF3FFF3FFF3FFF3FFF3FFF3FFF3FB1
:100F5000FF3FFF3FFF3FFF3FFF3FFF3FFF3FFF3FA1
:100F6000FF3FFF3FFF3FFF3FFF3FFF3FFF3FFF3F91
:100F7000FF3FFF3FFF3FFF3FFF3FFF3FFF3FFF3F81
:100F8000FF3FFF3FFF3FFF3FFF3FFF3FFF3FFF3F71
:100F9000FF3FFF3FFF3FFF3FFF3FFF3FFF3FFF3F61
:100FA000FF3FFF3FFF3FFF3FFF3FFF3FFF3FFF3F51
:100FB000FF3FFF3FFF3FFF3FFF3FFF3FFF3FFF3F41
:100FC000FF3FFF3FFF3FFF3FFF3FFF3FFF3FFF3F31
:100FD000FF3FFF3FFF3FFF3FFF3FFF3FFF3FFF3F21
:100FE000FF3FFF3FFF3FFF3FFF3FFF3FFF3FFF3F11
:100FF000FF3FFF3FFF3FFF3FFF3FFF3FFF3FFF3F01
:1010000003138312F801F9011030FC00710DF80D83
:10101000F90D7408F8027508031C750FF90203181E
:1010200018287408F80775080318750FF9070310D6
:10103000F00DF10DFC0B0628080003138312E101EB
:10104000600884000008E2006208003A03193228B0
:101050006208E6005B20E10A61086007840000087E
:10106000E200242808000313831698169030831298
:10107000980083168616861783120C08F10000303C
:10108000F11A0130F1007108013A03193C280800F7
:10109000031383121A08E0001808F1000030F11859
:1010A0000130F1007108013A031D58281812181672
:1010B0006008F0000800031383161808F1000030E0
:1010C000F1180130F1007108003A031D6928000091
:1010D0005B28831266089900080003138312FB093A
:1010E000FA09F909F809F80A0319F90A0319FA0AB9
:1010F0000319FB0A0800031383120C08F1000030E7
:10110000F11A0130F1007108E0006008F0000800F9
:10111000031383125308FF3A031D9028A901922854
:10112000FF30A9000800FF3FFF3FFF3FFF3FFF3FA9
:02400E00C430BC
:00000001FF
